{
  "_format": "hh-sol-artifact-1",
  "contractName": "Paypen",
  "sourceName": "contracts/Paypen.sol",
  "abi": [
    {
      "inputs": [
        {
          "internalType": "string",
          "name": "name_",
          "type": "string"
        },
        {
          "internalType": "string",
          "name": "symbol_",
          "type": "string"
        },
        {
          "internalType": "uint256",
          "name": "fees_",
          "type": "uint256"
        }
      ],
      "stateMutability": "nonpayable",
      "type": "constructor"
    },
    {
      "anonymous": false,
      "inputs": [
        {
          "indexed": true,
          "internalType": "address",
          "name": "owner",
          "type": "address"
        },
        {
          "indexed": true,
          "internalType": "address",
          "name": "approved",
          "type": "address"
        },
        {
          "indexed": true,
          "internalType": "uint256",
          "name": "tokenId",
          "type": "uint256"
        }
      ],
      "name": "Approval",
      "type": "event"
    },
    {
      "anonymous": false,
      "inputs": [
        {
          "indexed": true,
          "internalType": "address",
          "name": "owner",
          "type": "address"
        },
        {
          "indexed": true,
          "internalType": "address",
          "name": "operator",
          "type": "address"
        },
        {
          "indexed": false,
          "internalType": "bool",
          "name": "approved",
          "type": "bool"
        }
      ],
      "name": "ApprovalForAll",
      "type": "event"
    },
    {
      "anonymous": false,
      "inputs": [
        {
          "indexed": true,
          "internalType": "address",
          "name": "previousOwner",
          "type": "address"
        },
        {
          "indexed": true,
          "internalType": "address",
          "name": "newOwner",
          "type": "address"
        }
      ],
      "name": "OwnershipTransferred",
      "type": "event"
    },
    {
      "anonymous": false,
      "inputs": [
        {
          "indexed": true,
          "internalType": "address",
          "name": "from",
          "type": "address"
        },
        {
          "indexed": true,
          "internalType": "address",
          "name": "to",
          "type": "address"
        },
        {
          "indexed": true,
          "internalType": "uint256",
          "name": "tokenId",
          "type": "uint256"
        }
      ],
      "name": "Transfer",
      "type": "event"
    },
    {
      "inputs": [
        {
          "internalType": "address",
          "name": "to",
          "type": "address"
        },
        {
          "internalType": "uint256",
          "name": "tokenId",
          "type": "uint256"
        }
      ],
      "name": "approve",
      "outputs": [],
      "stateMutability": "nonpayable",
      "type": "function"
    },
    {
      "inputs": [
        {
          "internalType": "address",
          "name": "owner",
          "type": "address"
        }
      ],
      "name": "balanceOf",
      "outputs": [
        {
          "internalType": "uint256",
          "name": "",
          "type": "uint256"
        }
      ],
      "stateMutability": "view",
      "type": "function"
    },
    {
      "inputs": [],
      "name": "fees",
      "outputs": [
        {
          "internalType": "uint256",
          "name": "",
          "type": "uint256"
        }
      ],
      "stateMutability": "view",
      "type": "function"
    },
    {
      "inputs": [
        {
          "internalType": "uint256",
          "name": "tokenId",
          "type": "uint256"
        }
      ],
      "name": "getApproved",
      "outputs": [
        {
          "internalType": "address",
          "name": "",
          "type": "address"
        }
      ],
      "stateMutability": "view",
      "type": "function"
    },
    {
      "inputs": [
        {
          "internalType": "address",
          "name": "owner",
          "type": "address"
        },
        {
          "internalType": "address",
          "name": "operator",
          "type": "address"
        }
      ],
      "name": "isApprovedForAll",
      "outputs": [
        {
          "internalType": "bool",
          "name": "",
          "type": "bool"
        }
      ],
      "stateMutability": "view",
      "type": "function"
    },
    {
      "inputs": [],
      "name": "name",
      "outputs": [
        {
          "internalType": "string",
          "name": "",
          "type": "string"
        }
      ],
      "stateMutability": "view",
      "type": "function"
    },
    {
      "inputs": [],
      "name": "owner",
      "outputs": [
        {
          "internalType": "address",
          "name": "",
          "type": "address"
        }
      ],
      "stateMutability": "view",
      "type": "function"
    },
    {
      "inputs": [
        {
          "internalType": "uint256",
          "name": "tokenId",
          "type": "uint256"
        }
      ],
      "name": "ownerOf",
      "outputs": [
        {
          "internalType": "address",
          "name": "",
          "type": "address"
        }
      ],
      "stateMutability": "view",
      "type": "function"
    },
    {
      "inputs": [
        {
          "internalType": "uint256",
          "name": "tokenId",
          "type": "uint256"
        },
        {
          "internalType": "contract ISuperToken",
          "name": "token",
          "type": "address"
        }
      ],
      "name": "read",
      "outputs": [],
      "stateMutability": "nonpayable",
      "type": "function"
    },
    {
      "inputs": [],
      "name": "renounceOwnership",
      "outputs": [],
      "stateMutability": "nonpayable",
      "type": "function"
    },
    {
      "inputs": [
        {
          "internalType": "address",
          "name": "to",
          "type": "address"
        },
        {
          "internalType": "string",
          "name": "uri",
          "type": "string"
        }
      ],
      "name": "safeMint",
      "outputs": [],
      "stateMutability": "payable",
      "type": "function"
    },
    {
      "inputs": [
        {
          "internalType": "address",
          "name": "from",
          "type": "address"
        },
        {
          "internalType": "address",
          "name": "to",
          "type": "address"
        },
        {
          "internalType": "uint256",
          "name": "tokenId",
          "type": "uint256"
        }
      ],
      "name": "safeTransferFrom",
      "outputs": [],
      "stateMutability": "nonpayable",
      "type": "function"
    },
    {
      "inputs": [
        {
          "internalType": "address",
          "name": "from",
          "type": "address"
        },
        {
          "internalType": "address",
          "name": "to",
          "type": "address"
        },
        {
          "internalType": "uint256",
          "name": "tokenId",
          "type": "uint256"
        },
        {
          "internalType": "bytes",
          "name": "data",
          "type": "bytes"
        }
      ],
      "name": "safeTransferFrom",
      "outputs": [],
      "stateMutability": "nonpayable",
      "type": "function"
    },
    {
      "inputs": [
        {
          "internalType": "address",
          "name": "operator",
          "type": "address"
        },
        {
          "internalType": "bool",
          "name": "approved",
          "type": "bool"
        }
      ],
      "name": "setApprovalForAll",
      "outputs": [],
      "stateMutability": "nonpayable",
      "type": "function"
    },
    {
      "inputs": [
        {
          "internalType": "uint256",
          "name": "tokenId",
          "type": "uint256"
        },
        {
          "internalType": "contract ISuperToken",
          "name": "token",
          "type": "address"
        }
      ],
      "name": "stop",
      "outputs": [],
      "stateMutability": "nonpayable",
      "type": "function"
    },
    {
      "inputs": [
        {
          "internalType": "bytes4",
          "name": "interfaceId",
          "type": "bytes4"
        }
      ],
      "name": "supportsInterface",
      "outputs": [
        {
          "internalType": "bool",
          "name": "",
          "type": "bool"
        }
      ],
      "stateMutability": "view",
      "type": "function"
    },
    {
      "inputs": [],
      "name": "symbol",
      "outputs": [
        {
          "internalType": "string",
          "name": "",
          "type": "string"
        }
      ],
      "stateMutability": "view",
      "type": "function"
    },
    {
      "inputs": [
        {
          "internalType": "uint256",
          "name": "index",
          "type": "uint256"
        }
      ],
      "name": "tokenByIndex",
      "outputs": [
        {
          "internalType": "uint256",
          "name": "",
          "type": "uint256"
        }
      ],
      "stateMutability": "view",
      "type": "function"
    },
    {
      "inputs": [
        {
          "internalType": "address",
          "name": "owner",
          "type": "address"
        },
        {
          "internalType": "uint256",
          "name": "index",
          "type": "uint256"
        }
      ],
      "name": "tokenOfOwnerByIndex",
      "outputs": [
        {
          "internalType": "uint256",
          "name": "",
          "type": "uint256"
        }
      ],
      "stateMutability": "view",
      "type": "function"
    },
    {
      "inputs": [
        {
          "internalType": "uint256",
          "name": "tokenId",
          "type": "uint256"
        }
      ],
      "name": "tokenURI",
      "outputs": [
        {
          "internalType": "string",
          "name": "",
          "type": "string"
        }
      ],
      "stateMutability": "view",
      "type": "function"
    },
    {
      "inputs": [],
      "name": "totalSupply",
      "outputs": [
        {
          "internalType": "uint256",
          "name": "",
          "type": "uint256"
        }
      ],
      "stateMutability": "view",
      "type": "function"
    },
    {
      "inputs": [
        {
          "internalType": "address",
          "name": "from",
          "type": "address"
        },
        {
          "internalType": "address",
          "name": "to",
          "type": "address"
        },
        {
          "internalType": "uint256",
          "name": "tokenId",
          "type": "uint256"
        }
      ],
      "name": "transferFrom",
      "outputs": [],
      "stateMutability": "nonpayable",
      "type": "function"
    },
    {
      "inputs": [
        {
          "internalType": "address",
          "name": "newOwner",
          "type": "address"
        }
      ],
      "name": "transferOwnership",
      "outputs": [],
      "stateMutability": "nonpayable",
      "type": "function"
    }
  ],
  "bytecode": "0x608060405266038d7ea4c68000600e60006101000a8154816bffffffffffffffffffffffff0219169083600b0b6bffffffffffffffffffffffff1602179055503480156200004c57600080fd5b5060405162004d4738038062004d47833981810160405281019062000072919062000366565b8282816000908162000085919062000641565b50806001908162000097919062000641565b505050620000ba620000ae620000ca60201b60201c565b620000d260201b60201c565b80600d8190555050505062000728565b600033905090565b6000600b60009054906101000a900473ffffffffffffffffffffffffffffffffffffffff16905081600b60006101000a81548173ffffffffffffffffffffffffffffffffffffffff021916908373ffffffffffffffffffffffffffffffffffffffff1602179055508173ffffffffffffffffffffffffffffffffffffffff168173ffffffffffffffffffffffffffffffffffffffff167f8be0079c531659141344cd1fd0a4f28419497f9722a3daafe3b4186f6b6457e060405160405180910390a35050565b6000604051905090565b600080fd5b600080fd5b600080fd5b600080fd5b6000601f19601f8301169050919050565b7f4e487b7100000000000000000000000000000000000000000000000000000000600052604160045260246000fd5b6200020182620001b6565b810181811067ffffffffffffffff82111715620002235762000222620001c7565b5b80604052505050565b60006200023862000198565b9050620002468282620001f6565b919050565b600067ffffffffffffffff821115620002695762000268620001c7565b5b6200027482620001b6565b9050602081019050919050565b60005b83811015620002a157808201518184015260208101905062000284565b60008484015250505050565b6000620002c4620002be846200024b565b6200022c565b905082815260208101848484011115620002e357620002e2620001b1565b5b620002f084828562000281565b509392505050565b600082601f83011262000310576200030f620001ac565b5b815162000322848260208601620002ad565b91505092915050565b6000819050919050565b62000340816200032b565b81146200034c57600080fd5b50565b600081519050620003608162000335565b92915050565b600080600060608486031215620003825762000381620001a2565b5b600084015167ffffffffffffffff811115620003a357620003a2620001a7565b5b620003b186828701620002f8565b935050602084015167ffffffffffffffff811115620003d557620003d4620001a7565b5b620003e386828701620002f8565b9250506040620003f6868287016200034f565b9150509250925092565b600081519050919050565b7f4e487b7100000000000000000000000000000000000000000000000000000000600052602260045260246000fd5b600060028204905060018216806200045357607f821691505b6020821081036200046957620004686200040b565b5b50919050565b60008190508160005260206000209050919050565b60006020601f8301049050919050565b600082821b905092915050565b600060088302620004d37fffffffffffffffffffffffffffffffffffffffffffffffffffffffffffffffff8262000494565b620004df868362000494565b95508019841693508086168417925050509392505050565b6000819050919050565b6000620005226200051c62000516846200032b565b620004f7565b6200032b565b9050919050565b6000819050919050565b6200053e8362000501565b620005566200054d8262000529565b848454620004a1565b825550505050565b600090565b6200056d6200055e565b6200057a81848462000533565b505050565b5b81811015620005a2576200059660008262000563565b60018101905062000580565b5050565b601f821115620005f157620005bb816200046f565b620005c68462000484565b81016020851015620005d6578190505b620005ee620005e58562000484565b8301826200057f565b50505b505050565b600082821c905092915050565b60006200061660001984600802620005f6565b1980831691505092915050565b600062000631838362000603565b9150826002028217905092915050565b6200064c8262000400565b67ffffffffffffffff811115620006685762000667620001c7565b5b6200067482546200043a565b62000681828285620005a6565b600060209050601f831160018114620006b95760008415620006a4578287015190505b620006b0858262000623565b86555062000720565b601f198416620006c9866200046f565b60005b82811015620006f357848901518255600182019150602085019450602081019050620006cc565b868310156200071357848901516200070f601f89168262000603565b8355505b6001600288020188555050505b505050505050565b61460f80620007386000396000f3fe6080604052600436106101405760003560e01c806370a08231116100b6578063a22cb4651161006f578063a22cb4651461046e578063b88d4fde14610497578063c87b56dd146104c0578063d204c45e146104fd578063e985e9c514610519578063f2fde38b1461055657610140565b806370a0823114610370578063715018a6146103ad5780638c9aa7b5146103c45780638da5cb5b146103ed57806395d89b41146104185780639af1d35a1461044357610140565b806323b872dd1161010857806323b872dd1461023e5780632f745c59146102675780634070ede4146102a457806342842e0e146102cd5780634f6ccce7146102f65780636352211e1461033357610140565b806301ffc9a71461014557806306fdde0314610182578063081812fc146101ad578063095ea7b3146101ea57806318160ddd14610213575b600080fd5b34801561015157600080fd5b5061016c60048036038101906101679190612cec565b61057f565b6040516101799190612d34565b60405180910390f35b34801561018e57600080fd5b50610197610591565b6040516101a49190612ddf565b60405180910390f35b3480156101b957600080fd5b506101d460048036038101906101cf9190612e37565b610623565b6040516101e19190612ea5565b60405180910390f35b3480156101f657600080fd5b50610211600480360381019061020c9190612eec565b610669565b005b34801561021f57600080fd5b50610228610780565b6040516102359190612f3b565b60405180910390f35b34801561024a57600080fd5b5061026560048036038101906102609190612f56565b61078d565b005b34801561027357600080fd5b5061028e60048036038101906102899190612eec565b6107ed565b60405161029b9190612f3b565b60405180910390f35b3480156102b057600080fd5b506102cb60048036038101906102c69190612fe7565b610892565b005b3480156102d957600080fd5b506102f460048036038101906102ef9190612f56565b6108d0565b005b34801561030257600080fd5b5061031d60048036038101906103189190612e37565b6108f0565b60405161032a9190612f3b565b60405180910390f35b34801561033f57600080fd5b5061035a60048036038101906103559190612e37565b610961565b6040516103679190612ea5565b60405180910390f35b34801561037c57600080fd5b5061039760048036038101906103929190613027565b6109e7565b6040516103a49190612f3b565b60405180910390f35b3480156103b957600080fd5b506103c2610a9e565b005b3480156103d057600080fd5b506103eb60048036038101906103e69190612fe7565b610ab2565b005b3480156103f957600080fd5b50610402610b01565b60405161040f9190612ea5565b60405180910390f35b34801561042457600080fd5b5061042d610b2b565b60405161043a9190612ddf565b60405180910390f35b34801561044f57600080fd5b50610458610bbd565b6040516104659190612f3b565b60405180910390f35b34801561047a57600080fd5b5061049560048036038101906104909190613080565b610bc3565b005b3480156104a357600080fd5b506104be60048036038101906104b991906131f5565b610bd9565b005b3480156104cc57600080fd5b506104e760048036038101906104e29190612e37565b610c3b565b6040516104f49190612ddf565b60405180910390f35b61051760048036038101906105129190613319565b610c4d565b005b34801561052557600080fd5b50610540600480360381019061053b9190613375565b610d6a565b60405161054d9190612d34565b60405180910390f35b34801561056257600080fd5b5061057d60048036038101906105789190613027565b610dfe565b005b600061058a82610e81565b9050919050565b6060600080546105a0906133e4565b80601f01602080910402602001604051908101604052809291908181526020018280546105cc906133e4565b80156106195780601f106105ee57610100808354040283529160200191610619565b820191906000526020600020905b8154815290600101906020018083116105fc57829003601f168201915b5050505050905090565b600061062e82610efb565b6004600083815260200190815260200160002060009054906101000a900473ffffffffffffffffffffffffffffffffffffffff169050919050565b600061067482610961565b90508073ffffffffffffffffffffffffffffffffffffffff168373ffffffffffffffffffffffffffffffffffffffff16036106e4576040517f08c379a00000000000000000000000000000000000000000000000000000000081526004016106db90613487565b60405180910390fd5b8073ffffffffffffffffffffffffffffffffffffffff16610703610f46565b73ffffffffffffffffffffffffffffffffffffffff16148061073257506107318161072c610f46565b610d6a565b5b610771576040517f08c379a000000000000000000000000000000000000000000000000000000000815260040161076890613519565b60405180910390fd5b61077b8383610f4e565b505050565b6000600980549050905090565b61079e610798610f46565b82611007565b6107dd576040517f08c379a00000000000000000000000000000000000000000000000000000000081526004016107d4906135ab565b60405180910390fd5b6107e883838361109c565b505050565b60006107f8836109e7565b8210610839576040517f08c379a00000000000000000000000000000000000000000000000000000000081526004016108309061363d565b60405180910390fd5b600760008473ffffffffffffffffffffffffffffffffffffffff1673ffffffffffffffffffffffffffffffffffffffff168152602001908152602001600020600083815260200190815260200160002054905092915050565b600061089d83610961565b90506108ca33828473ffffffffffffffffffffffffffffffffffffffff166113959092919063ffffffff16565b50505050565b6108eb83838360405180602001604052806000815250610bd9565b505050565b60006108fa610780565b821061093b576040517f08c379a0000000000000000000000000000000000000000000000000000000008152600401610932906136cf565b60405180910390fd5b6009828154811061094f5761094e6136ef565b5b90600052602060002001549050919050565b60008061096d83611548565b9050600073ffffffffffffffffffffffffffffffffffffffff168173ffffffffffffffffffffffffffffffffffffffff16036109de576040517f08c379a00000000000000000000000000000000000000000000000000000000081526004016109d59061376a565b60405180910390fd5b80915050919050565b60008073ffffffffffffffffffffffffffffffffffffffff168273ffffffffffffffffffffffffffffffffffffffff1603610a57576040517f08c379a0000000000000000000000000000000000000000000000000000000008152600401610a4e906137fc565b60405180910390fd5b600360008373ffffffffffffffffffffffffffffffffffffffff1673ffffffffffffffffffffffffffffffffffffffff168152602001908152602001600020549050919050565b610aa6611585565b610ab06000611603565b565b6000610abd83610961565b9050610afb3382600e60009054906101000a9004600b0b8573ffffffffffffffffffffffffffffffffffffffff166116c9909392919063ffffffff16565b50505050565b6000600b60009054906101000a900473ffffffffffffffffffffffffffffffffffffffff16905090565b606060018054610b3a906133e4565b80601f0160208091040260200160405190810160405280929190818152602001828054610b66906133e4565b8015610bb35780601f10610b8857610100808354040283529160200191610bb3565b820191906000526020600020905b815481529060010190602001808311610b9657829003601f168201915b5050505050905090565b600d5481565b610bd5610bce610f46565b838361187f565b5050565b610bea610be4610f46565b83611007565b610c29576040517f08c379a0000000000000000000000000000000000000000000000000000000008152600401610c20906135ab565b60405180910390fd5b610c35848484846119eb565b50505050565b6060610c4682611a47565b9050919050565b600d54341015610c92576040517f08c379a0000000000000000000000000000000000000000000000000000000008152600401610c8990613868565b60405180910390fd5b610c9a610b01565b73ffffffffffffffffffffffffffffffffffffffff166108fc600d549081150290604051600060405180830381858888f19350505050158015610ce1573d6000803e3d6000fd5b506000610cee600c611b59565b9050610cfa600c611b67565b610d048382611b7d565b610d0e8183611b9b565b60004790506000811115610d64573373ffffffffffffffffffffffffffffffffffffffff166108fc479081150290604051600060405180830381858888f19350505050158015610d62573d6000803e3d6000fd5b505b50505050565b6000600560008473ffffffffffffffffffffffffffffffffffffffff1673ffffffffffffffffffffffffffffffffffffffff16815260200190815260200160002060008373ffffffffffffffffffffffffffffffffffffffff1673ffffffffffffffffffffffffffffffffffffffff16815260200190815260200160002060009054906101000a900460ff16905092915050565b610e06611585565b600073ffffffffffffffffffffffffffffffffffffffff168173ffffffffffffffffffffffffffffffffffffffff1603610e75576040517f08c379a0000000000000000000000000000000000000000000000000000000008152600401610e6c906138fa565b60405180910390fd5b610e7e81611603565b50565b60007f780e9d63000000000000000000000000000000000000000000000000000000007bffffffffffffffffffffffffffffffffffffffffffffffffffffffff1916827bffffffffffffffffffffffffffffffffffffffffffffffffffffffff19161480610ef45750610ef382611c08565b5b9050919050565b610f0481611cea565b610f43576040517f08c379a0000000000000000000000000000000000000000000000000000000008152600401610f3a9061376a565b60405180910390fd5b50565b600033905090565b816004600083815260200190815260200160002060006101000a81548173ffffffffffffffffffffffffffffffffffffffff021916908373ffffffffffffffffffffffffffffffffffffffff160217905550808273ffffffffffffffffffffffffffffffffffffffff16610fc183610961565b73ffffffffffffffffffffffffffffffffffffffff167f8c5be1e5ebec7d5bd14f71427d1e84f3dd0314c0f7b2291e5b200ac8c7c3b92560405160405180910390a45050565b60008061101383610961565b90508073ffffffffffffffffffffffffffffffffffffffff168473ffffffffffffffffffffffffffffffffffffffff16148061105557506110548185610d6a565b5b8061109357508373ffffffffffffffffffffffffffffffffffffffff1661107b84610623565b73ffffffffffffffffffffffffffffffffffffffff16145b91505092915050565b8273ffffffffffffffffffffffffffffffffffffffff166110bc82610961565b73ffffffffffffffffffffffffffffffffffffffff1614611112576040517f08c379a00000000000000000000000000000000000000000000000000000000081526004016111099061398c565b60405180910390fd5b600073ffffffffffffffffffffffffffffffffffffffff168273ffffffffffffffffffffffffffffffffffffffff1603611181576040517f08c379a000000000000000000000000000000000000000000000000000000000815260040161117890613a1e565b60405180910390fd5b61118e8383836001611d2b565b8273ffffffffffffffffffffffffffffffffffffffff166111ae82610961565b73ffffffffffffffffffffffffffffffffffffffff1614611204576040517f08c379a00000000000000000000000000000000000000000000000000000000081526004016111fb9061398c565b60405180910390fd5b6004600082815260200190815260200160002060006101000a81549073ffffffffffffffffffffffffffffffffffffffff02191690556001600360008573ffffffffffffffffffffffffffffffffffffffff1673ffffffffffffffffffffffffffffffffffffffff168152602001908152602001600020600082825403925050819055506001600360008473ffffffffffffffffffffffffffffffffffffffff1673ffffffffffffffffffffffffffffffffffffffff16815260200190815260200160002060008282540192505081905550816002600083815260200190815260200160002060006101000a81548173ffffffffffffffffffffffffffffffffffffffff021916908373ffffffffffffffffffffffffffffffffffffffff160217905550808273ffffffffffffffffffffffffffffffffffffffff168473ffffffffffffffffffffffffffffffffffffffff167fddf252ad1be2c89b69c2b068fc378daa952ba7f163c4a11628f55a4df523b3ef60405160405180910390a46113908383836001611d3d565b505050565b60008060006113a386611d43565b915091508173ffffffffffffffffffffffffffffffffffffffff166339255d5b828373ffffffffffffffffffffffffffffffffffffffff1663b4b333c68a8a8a600067ffffffffffffffff8111156113fe576113fd6130ca565b5b6040519080825280601f01601f1916602001820160405280156114305781602001600182028036833780820191505090505b506040516024016114449493929190613af2565b604051602081830303815290604052915060e01b6020820180517bffffffffffffffffffffffffffffffffffffffffffffffffffffffff8381831617835250505050600067ffffffffffffffff8111156114a1576114a06130ca565b5b6040519080825280601f01601f1916602001820160405280156114d35781602001600182028036833780820191505090505b506040518463ffffffff1660e01b81526004016114f293929190613b5f565b6000604051808303816000875af1158015611511573d6000803e3d6000fd5b505050506040513d6000823e3d601f19601f8201168201806040525081019061153a9190613c14565b506001925050509392505050565b60006002600083815260200190815260200160002060009054906101000a900473ffffffffffffffffffffffffffffffffffffffff169050919050565b61158d610f46565b73ffffffffffffffffffffffffffffffffffffffff166115ab610b01565b73ffffffffffffffffffffffffffffffffffffffff1614611601576040517f08c379a00000000000000000000000000000000000000000000000000000000081526004016115f890613ca9565b60405180910390fd5b565b6000600b60009054906101000a900473ffffffffffffffffffffffffffffffffffffffff16905081600b60006101000a81548173ffffffffffffffffffffffffffffffffffffffff021916908373ffffffffffffffffffffffffffffffffffffffff1602179055508173ffffffffffffffffffffffffffffffffffffffff168173ffffffffffffffffffffffffffffffffffffffff167f8be0079c531659141344cd1fd0a4f28419497f9722a3daafe3b4186f6b6457e060405160405180910390a35050565b60008060006116d787611d43565b915091508173ffffffffffffffffffffffffffffffffffffffff166339255d5b828373ffffffffffffffffffffffffffffffffffffffff166394229ecb8b8b8b8b600067ffffffffffffffff811115611733576117326130ca565b5b6040519080825280601f01601f1916602001820160405280156117655781602001600182028036833780820191505090505b5060405160240161177a959493929190613ce5565b604051602081830303815290604052915060e01b6020820180517bffffffffffffffffffffffffffffffffffffffffffffffffffffffff8381831617835250505050600067ffffffffffffffff8111156117d7576117d66130ca565b5b6040519080825280601f01601f1916602001820160405280156118095781602001600182028036833780820191505090505b506040518463ffffffff1660e01b815260040161182893929190613b5f565b6000604051808303816000875af1158015611847573d6000803e3d6000fd5b505050506040513d6000823e3d601f19601f820116820180604052508101906118709190613c14565b50600192505050949350505050565b8173ffffffffffffffffffffffffffffffffffffffff168373ffffffffffffffffffffffffffffffffffffffff16036118ed576040517f08c379a00000000000000000000000000000000000000000000000000000000081526004016118e490613d8b565b60405180910390fd5b80600560008573ffffffffffffffffffffffffffffffffffffffff1673ffffffffffffffffffffffffffffffffffffffff16815260200190815260200160002060008473ffffffffffffffffffffffffffffffffffffffff1673ffffffffffffffffffffffffffffffffffffffff16815260200190815260200160002060006101000a81548160ff0219169083151502179055508173ffffffffffffffffffffffffffffffffffffffff168373ffffffffffffffffffffffffffffffffffffffff167f17307eab39ab6107e8899845ad3d59bd9653f200f220920489ca2b5937696c31836040516119de9190612d34565b60405180910390a3505050565b6119f684848461109c565b611a0284848484611fca565b611a41576040517f08c379a0000000000000000000000000000000000000000000000000000000008152600401611a3890613e1d565b60405180910390fd5b50505050565b6060611a5282610efb565b6000600660008481526020019081526020016000208054611a72906133e4565b80601f0160208091040260200160405190810160405280929190818152602001828054611a9e906133e4565b8015611aeb5780601f10611ac057610100808354040283529160200191611aeb565b820191906000526020600020905b815481529060010190602001808311611ace57829003601f168201915b505050505090506000611afc612151565b90506000815103611b11578192505050611b54565b600082511115611b46578082604051602001611b2e929190613e79565b60405160208183030381529060405292505050611b54565b611b4f84612168565b925050505b919050565b600081600001549050919050565b6001816000016000828254019250508190555050565b611b978282604051806020016040528060008152506121d0565b5050565b611ba482611cea565b611be3576040517f08c379a0000000000000000000000000000000000000000000000000000000008152600401611bda90613f0f565b60405180910390fd5b80600660008481526020019081526020016000209081611c0391906140d1565b505050565b60007f80ac58cd000000000000000000000000000000000000000000000000000000007bffffffffffffffffffffffffffffffffffffffffffffffffffffffff1916827bffffffffffffffffffffffffffffffffffffffffffffffffffffffff19161480611cd357507f5b5e139f000000000000000000000000000000000000000000000000000000007bffffffffffffffffffffffffffffffffffffffffffffffffffffffff1916827bffffffffffffffffffffffffffffffffffffffffffffffffffffffff1916145b80611ce35750611ce28261222b565b5b9050919050565b60008073ffffffffffffffffffffffffffffffffffffffff16611d0c83611548565b73ffffffffffffffffffffffffffffffffffffffff1614159050919050565b611d3784848484612295565b50505050565b50505050565b6000807f65599bf746e17a00ea62e3610586992d88101b78eec3cf380706621fb97ea8375491507fb969d79d88acd02d04ed7ee7d43b949e7daf093d363abcfbbc43dfdfd1ce969a549050600073ffffffffffffffffffffffffffffffffffffffff168173ffffffffffffffffffffffffffffffffffffffff1603611f4b57600073ffffffffffffffffffffffffffffffffffffffff168273ffffffffffffffffffffffffffffffffffffffff1603611e68578273ffffffffffffffffffffffffffffffffffffffff166320bc44256040518163ffffffff1660e01b8152600401602060405180830381865afa158015611e41573d6000803e3d6000fd5b505050506040513d601f19601f82011682018060405250810190611e6591906141b8565b91505b8173ffffffffffffffffffffffffffffffffffffffff1663b6d200de7fa9214cc96615e0085d3bb077758db69497dc2dce3b2b1e97bc93c3d18d83efd36040518263ffffffff1660e01b8152600401611ec19190614237565b602060405180830381865afa158015611ede573d6000803e3d6000fd5b505050506040513d601f19601f82011682018060405250810190611f029190614290565b9050817f65599bf746e17a00ea62e3610586992d88101b78eec3cf380706621fb97ea83755807fb969d79d88acd02d04ed7ee7d43b949e7daf093d363abcfbbc43dfdfd1ce969a555b600073ffffffffffffffffffffffffffffffffffffffff168273ffffffffffffffffffffffffffffffffffffffff1603611f8857611f876142bd565b5b600073ffffffffffffffffffffffffffffffffffffffff168173ffffffffffffffffffffffffffffffffffffffff1603611fc557611fc46142bd565b5b915091565b6000611feb8473ffffffffffffffffffffffffffffffffffffffff166123f3565b15612144578373ffffffffffffffffffffffffffffffffffffffff1663150b7a02612014610f46565b8786866040518563ffffffff1660e01b815260040161203694939291906142ec565b6020604051808303816000875af192505050801561207257506040513d601f19601f8201168201806040525081019061206f919061434d565b60015b6120f4573d80600081146120a2576040519150601f19603f3d011682016040523d82523d6000602084013e6120a7565b606091505b5060008151036120ec576040517f08c379a00000000000000000000000000000000000000000000000000000000081526004016120e390613e1d565b60405180910390fd5b805181602001fd5b63150b7a0260e01b7bffffffffffffffffffffffffffffffffffffffffffffffffffffffff1916817bffffffffffffffffffffffffffffffffffffffffffffffffffffffff191614915050612149565b600190505b949350505050565b606060405180602001604052806000815250905090565b606061217382610efb565b600061217d612151565b9050600081511161219d57604051806020016040528060008152506121c8565b806121a784612416565b6040516020016121b8929190613e79565b6040516020818303038152906040525b915050919050565b6121da83836124e4565b6121e76000848484611fca565b612226576040517f08c379a000000000000000000000000000000000000000000000000000000000815260040161221d90613e1d565b60405180910390fd5b505050565b60007f01ffc9a7000000000000000000000000000000000000000000000000000000007bffffffffffffffffffffffffffffffffffffffffffffffffffffffff1916827bffffffffffffffffffffffffffffffffffffffffffffffffffffffff1916149050919050565b6122a184848484612701565b60018111156122e5576040517f08c379a00000000000000000000000000000000000000000000000000000000081526004016122dc906143ec565b60405180910390fd5b6000829050600073ffffffffffffffffffffffffffffffffffffffff168573ffffffffffffffffffffffffffffffffffffffff160361232c5761232781612827565b61236b565b8373ffffffffffffffffffffffffffffffffffffffff168573ffffffffffffffffffffffffffffffffffffffff161461236a576123698582612870565b5b5b600073ffffffffffffffffffffffffffffffffffffffff168473ffffffffffffffffffffffffffffffffffffffff16036123ad576123a8816129dd565b6123ec565b8473ffffffffffffffffffffffffffffffffffffffff168473ffffffffffffffffffffffffffffffffffffffff16146123eb576123ea8482612aae565b5b5b5050505050565b6000808273ffffffffffffffffffffffffffffffffffffffff163b119050919050565b60606000600161242584612b2d565b01905060008167ffffffffffffffff811115612444576124436130ca565b5b6040519080825280601f01601f1916602001820160405280156124765781602001600182028036833780820191505090505b509050600082602001820190505b6001156124d9578080600190039150507f3031323334353637383961626364656600000000000000000000000000000000600a86061a8153600a85816124cd576124cc61440c565b5b04945060008503612484575b819350505050919050565b600073ffffffffffffffffffffffffffffffffffffffff168273ffffffffffffffffffffffffffffffffffffffff1603612553576040517f08c379a000000000000000000000000000000000000000000000000000000000815260040161254a90614487565b60405180910390fd5b61255c81611cea565b1561259c576040517f08c379a0000000000000000000000000000000000000000000000000000000008152600401612593906144f3565b60405180910390fd5b6125aa600083836001611d2b565b6125b381611cea565b156125f3576040517f08c379a00000000000000000000000000000000000000000000000000000000081526004016125ea906144f3565b60405180910390fd5b6001600360008473ffffffffffffffffffffffffffffffffffffffff1673ffffffffffffffffffffffffffffffffffffffff16815260200190815260200160002060008282540192505081905550816002600083815260200190815260200160002060006101000a81548173ffffffffffffffffffffffffffffffffffffffff021916908373ffffffffffffffffffffffffffffffffffffffff160217905550808273ffffffffffffffffffffffffffffffffffffffff16600073ffffffffffffffffffffffffffffffffffffffff167fddf252ad1be2c89b69c2b068fc378daa952ba7f163c4a11628f55a4df523b3ef60405160405180910390a46126fd600083836001611d3d565b5050565b600181111561282157600073ffffffffffffffffffffffffffffffffffffffff168473ffffffffffffffffffffffffffffffffffffffff16146127955780600360008673ffffffffffffffffffffffffffffffffffffffff1673ffffffffffffffffffffffffffffffffffffffff168152602001908152602001600020600082825461278d9190614542565b925050819055505b600073ffffffffffffffffffffffffffffffffffffffff168373ffffffffffffffffffffffffffffffffffffffff16146128205780600360008573ffffffffffffffffffffffffffffffffffffffff1673ffffffffffffffffffffffffffffffffffffffff16815260200190815260200160002060008282546128189190614576565b925050819055505b5b50505050565b600980549050600a600083815260200190815260200160002081905550600981908060018154018082558091505060019003906000526020600020016000909190919091505550565b6000600161287d846109e7565b6128879190614542565b905060006008600084815260200190815260200160002054905081811461296c576000600760008673ffffffffffffffffffffffffffffffffffffffff1673ffffffffffffffffffffffffffffffffffffffff168152602001908152602001600020600084815260200190815260200160002054905080600760008773ffffffffffffffffffffffffffffffffffffffff1673ffffffffffffffffffffffffffffffffffffffff168152602001908152602001600020600084815260200190815260200160002081905550816008600083815260200190815260200160002081905550505b6008600084815260200190815260200160002060009055600760008573ffffffffffffffffffffffffffffffffffffffff1673ffffffffffffffffffffffffffffffffffffffff16815260200190815260200160002060008381526020019081526020016000206000905550505050565b600060016009805490506129f19190614542565b90506000600a6000848152602001908152602001600020549050600060098381548110612a2157612a206136ef565b5b906000526020600020015490508060098381548110612a4357612a426136ef565b5b906000526020600020018190555081600a600083815260200190815260200160002081905550600a6000858152602001908152602001600020600090556009805480612a9257612a916145aa565b5b6001900381819060005260206000200160009055905550505050565b6000612ab9836109e7565b905081600760008573ffffffffffffffffffffffffffffffffffffffff1673ffffffffffffffffffffffffffffffffffffffff168152602001908152602001600020600083815260200190815260200160002081905550806008600084815260200190815260200160002081905550505050565b600080600090507a184f03e93ff9f4daa797ed6e38ed64bf6a1f0100000000000000008310612b8b577a184f03e93ff9f4daa797ed6e38ed64bf6a1f0100000000000000008381612b8157612b8061440c565b5b0492506040810190505b6d04ee2d6d415b85acef81000000008310612bc8576d04ee2d6d415b85acef81000000008381612bbe57612bbd61440c565b5b0492506020810190505b662386f26fc100008310612bf757662386f26fc100008381612bed57612bec61440c565b5b0492506010810190505b6305f5e1008310612c20576305f5e1008381612c1657612c1561440c565b5b0492506008810190505b6127108310612c45576127108381612c3b57612c3a61440c565b5b0492506004810190505b60648310612c685760648381612c5e57612c5d61440c565b5b0492506002810190505b600a8310612c77576001810190505b80915050919050565b6000604051905090565b600080fd5b600080fd5b60007fffffffff0000000000000000000000000000000000000000000000000000000082169050919050565b612cc981612c94565b8114612cd457600080fd5b50565b600081359050612ce681612cc0565b92915050565b600060208284031215612d0257612d01612c8a565b5b6000612d1084828501612cd7565b91505092915050565b60008115159050919050565b612d2e81612d19565b82525050565b6000602082019050612d496000830184612d25565b92915050565b600081519050919050565b600082825260208201905092915050565b60005b83811015612d89578082015181840152602081019050612d6e565b60008484015250505050565b6000601f19601f8301169050919050565b6000612db182612d4f565b612dbb8185612d5a565b9350612dcb818560208601612d6b565b612dd481612d95565b840191505092915050565b60006020820190508181036000830152612df98184612da6565b905092915050565b6000819050919050565b612e1481612e01565b8114612e1f57600080fd5b50565b600081359050612e3181612e0b565b92915050565b600060208284031215612e4d57612e4c612c8a565b5b6000612e5b84828501612e22565b91505092915050565b600073ffffffffffffffffffffffffffffffffffffffff82169050919050565b6000612e8f82612e64565b9050919050565b612e9f81612e84565b82525050565b6000602082019050612eba6000830184612e96565b92915050565b612ec981612e84565b8114612ed457600080fd5b50565b600081359050612ee681612ec0565b92915050565b60008060408385031215612f0357612f02612c8a565b5b6000612f1185828601612ed7565b9250506020612f2285828601612e22565b9150509250929050565b612f3581612e01565b82525050565b6000602082019050612f506000830184612f2c565b92915050565b600080600060608486031215612f6f57612f6e612c8a565b5b6000612f7d86828701612ed7565b9350506020612f8e86828701612ed7565b9250506040612f9f86828701612e22565b9150509250925092565b6000612fb482612e84565b9050919050565b612fc481612fa9565b8114612fcf57600080fd5b50565b600081359050612fe181612fbb565b92915050565b60008060408385031215612ffe57612ffd612c8a565b5b600061300c85828601612e22565b925050602061301d85828601612fd2565b9150509250929050565b60006020828403121561303d5761303c612c8a565b5b600061304b84828501612ed7565b91505092915050565b61305d81612d19565b811461306857600080fd5b50565b60008135905061307a81613054565b92915050565b6000806040838503121561309757613096612c8a565b5b60006130a585828601612ed7565b92505060206130b68582860161306b565b9150509250929050565b600080fd5b600080fd5b7f4e487b7100000000000000000000000000000000000000000000000000000000600052604160045260246000fd5b61310282612d95565b810181811067ffffffffffffffff82111715613121576131206130ca565b5b80604052505050565b6000613134612c80565b905061314082826130f9565b919050565b600067ffffffffffffffff8211156131605761315f6130ca565b5b61316982612d95565b9050602081019050919050565b82818337600083830152505050565b600061319861319384613145565b61312a565b9050828152602081018484840111156131b4576131b36130c5565b5b6131bf848285613176565b509392505050565b600082601f8301126131dc576131db6130c0565b5b81356131ec848260208601613185565b91505092915050565b6000806000806080858703121561320f5761320e612c8a565b5b600061321d87828801612ed7565b945050602061322e87828801612ed7565b935050604061323f87828801612e22565b925050606085013567ffffffffffffffff8111156132605761325f612c8f565b5b61326c878288016131c7565b91505092959194509250565b600067ffffffffffffffff821115613293576132926130ca565b5b61329c82612d95565b9050602081019050919050565b60006132bc6132b784613278565b61312a565b9050828152602081018484840111156132d8576132d76130c5565b5b6132e3848285613176565b509392505050565b600082601f830112613300576132ff6130c0565b5b81356133108482602086016132a9565b91505092915050565b600080604083850312156133305761332f612c8a565b5b600061333e85828601612ed7565b925050602083013567ffffffffffffffff81111561335f5761335e612c8f565b5b61336b858286016132eb565b9150509250929050565b6000806040838503121561338c5761338b612c8a565b5b600061339a85828601612ed7565b92505060206133ab85828601612ed7565b9150509250929050565b7f4e487b7100000000000000000000000000000000000000000000000000000000600052602260045260246000fd5b600060028204905060018216806133fc57607f821691505b60208210810361340f5761340e6133b5565b5b50919050565b7f4552433732313a20617070726f76616c20746f2063757272656e74206f776e6560008201527f7200000000000000000000000000000000000000000000000000000000000000602082015250565b6000613471602183612d5a565b915061347c82613415565b604082019050919050565b600060208201905081810360008301526134a081613464565b9050919050565b7f4552433732313a20617070726f76652063616c6c6572206973206e6f7420746f60008201527f6b656e206f776e6572206f7220617070726f76656420666f7220616c6c000000602082015250565b6000613503603d83612d5a565b915061350e826134a7565b604082019050919050565b60006020820190508181036000830152613532816134f6565b9050919050565b7f4552433732313a2063616c6c6572206973206e6f7420746f6b656e206f776e6560008201527f72206f7220617070726f76656400000000000000000000000000000000000000602082015250565b6000613595602d83612d5a565b91506135a082613539565b604082019050919050565b600060208201905081810360008301526135c481613588565b9050919050565b7f455243373231456e756d657261626c653a206f776e657220696e646578206f7560008201527f74206f6620626f756e6473000000000000000000000000000000000000000000602082015250565b6000613627602b83612d5a565b9150613632826135cb565b604082019050919050565b600060208201905081810360008301526136568161361a565b9050919050565b7f455243373231456e756d657261626c653a20676c6f62616c20696e646578206f60008201527f7574206f6620626f756e64730000000000000000000000000000000000000000602082015250565b60006136b9602c83612d5a565b91506136c48261365d565b604082019050919050565b600060208201905081810360008301526136e8816136ac565b9050919050565b7f4e487b7100000000000000000000000000000000000000000000000000000000600052603260045260246000fd5b7f4552433732313a20696e76616c696420746f6b656e2049440000000000000000600082015250565b6000613754601883612d5a565b915061375f8261371e565b602082019050919050565b6000602082019050818103600083015261378381613747565b9050919050565b7f4552433732313a2061646472657373207a65726f206973206e6f74206120766160008201527f6c6964206f776e65720000000000000000000000000000000000000000000000602082015250565b60006137e6602983612d5a565b91506137f18261378a565b604082019050919050565b60006020820190508181036000830152613815816137d9565b9050919050565b7f4e6f7420656e6f756768204d4154494300000000000000000000000000000000600082015250565b6000613852601083612d5a565b915061385d8261381c565b602082019050919050565b6000602082019050818103600083015261388181613845565b9050919050565b7f4f776e61626c653a206e6577206f776e657220697320746865207a65726f206160008201527f6464726573730000000000000000000000000000000000000000000000000000602082015250565b60006138e4602683612d5a565b91506138ef82613888565b604082019050919050565b60006020820190508181036000830152613913816138d7565b9050919050565b7f4552433732313a207472616e736665722066726f6d20696e636f72726563742060008201527f6f776e6572000000000000000000000000000000000000000000000000000000602082015250565b6000613976602583612d5a565b91506139818261391a565b604082019050919050565b600060208201905081810360008301526139a581613969565b9050919050565b7f4552433732313a207472616e7366657220746f20746865207a65726f2061646460008201527f7265737300000000000000000000000000000000000000000000000000000000602082015250565b6000613a08602483612d5a565b9150613a13826139ac565b604082019050919050565b60006020820190508181036000830152613a37816139fb565b9050919050565b6000819050919050565b6000613a63613a5e613a5984612e64565b613a3e565b612e64565b9050919050565b6000613a7582613a48565b9050919050565b6000613a8782613a6a565b9050919050565b613a9781613a7c565b82525050565b600081519050919050565b600082825260208201905092915050565b6000613ac482613a9d565b613ace8185613aa8565b9350613ade818560208601612d6b565b613ae781612d95565b840191505092915050565b6000608082019050613b076000830187613a8e565b613b146020830186612e96565b613b216040830185612e96565b8181036060830152613b338184613ab9565b905095945050505050565b6000613b4982613a6a565b9050919050565b613b5981613b3e565b82525050565b6000606082019050613b746000830186613b50565b8181036020830152613b868185613ab9565b90508181036040830152613b9a8184613ab9565b9050949350505050565b6000613bb7613bb284613145565b61312a565b905082815260208101848484011115613bd357613bd26130c5565b5b613bde848285612d6b565b509392505050565b600082601f830112613bfb57613bfa6130c0565b5b8151613c0b848260208601613ba4565b91505092915050565b600060208284031215613c2a57613c29612c8a565b5b600082015167ffffffffffffffff811115613c4857613c47612c8f565b5b613c5484828501613be6565b91505092915050565b7f4f776e61626c653a2063616c6c6572206973206e6f7420746865206f776e6572600082015250565b6000613c93602083612d5a565b9150613c9e82613c5d565b602082019050919050565b60006020820190508181036000830152613cc281613c86565b9050919050565b600081600b0b9050919050565b613cdf81613cc9565b82525050565b600060a082019050613cfa6000830188613a8e565b613d076020830187612e96565b613d146040830186612e96565b613d216060830185613cd6565b8181036080830152613d338184613ab9565b90509695505050505050565b7f4552433732313a20617070726f766520746f2063616c6c657200000000000000600082015250565b6000613d75601983612d5a565b9150613d8082613d3f565b602082019050919050565b60006020820190508181036000830152613da481613d68565b9050919050565b7f4552433732313a207472616e7366657220746f206e6f6e20455243373231526560008201527f63656976657220696d706c656d656e7465720000000000000000000000000000602082015250565b6000613e07603283612d5a565b9150613e1282613dab565b604082019050919050565b60006020820190508181036000830152613e3681613dfa565b9050919050565b600081905092915050565b6000613e5382612d4f565b613e5d8185613e3d565b9350613e6d818560208601612d6b565b80840191505092915050565b6000613e858285613e48565b9150613e918284613e48565b91508190509392505050565b7f45524337323155524953746f726167653a2055524920736574206f66206e6f6e60008201527f6578697374656e7420746f6b656e000000000000000000000000000000000000602082015250565b6000613ef9602e83612d5a565b9150613f0482613e9d565b604082019050919050565b60006020820190508181036000830152613f2881613eec565b9050919050565b60008190508160005260206000209050919050565b60006020601f8301049050919050565b600082821b905092915050565b600060088302613f917fffffffffffffffffffffffffffffffffffffffffffffffffffffffffffffffff82613f54565b613f9b8683613f54565b95508019841693508086168417925050509392505050565b6000613fce613fc9613fc484612e01565b613a3e565b612e01565b9050919050565b6000819050919050565b613fe883613fb3565b613ffc613ff482613fd5565b848454613f61565b825550505050565b600090565b614011614004565b61401c818484613fdf565b505050565b5b8181101561404057614035600082614009565b600181019050614022565b5050565b601f8211156140855761405681613f2f565b61405f84613f44565b8101602085101561406e578190505b61408261407a85613f44565b830182614021565b50505b505050565b600082821c905092915050565b60006140a86000198460080261408a565b1980831691505092915050565b60006140c18383614097565b9150826002028217905092915050565b6140da82612d4f565b67ffffffffffffffff8111156140f3576140f26130ca565b5b6140fd82546133e4565b614108828285614044565b600060209050601f83116001811461413b5760008415614129578287015190505b61413385826140b5565b86555061419b565b601f19841661414986613f2f565b60005b828110156141715784890151825560018201915060208501945060208101905061414c565b8683101561418e578489015161418a601f891682614097565b8355505b6001600288020188555050505b505050505050565b6000815190506141b281612ec0565b92915050565b6000602082840312156141ce576141cd612c8a565b5b60006141dc848285016141a3565b91505092915050565b6000819050919050565b6000819050919050565b60008160001b9050919050565b600061422161421c614217846141e5565b6141f9565b6141ef565b9050919050565b61423181614206565b82525050565b600060208201905061424c6000830184614228565b92915050565b600061425d82612e84565b9050919050565b61426d81614252565b811461427857600080fd5b50565b60008151905061428a81614264565b92915050565b6000602082840312156142a6576142a5612c8a565b5b60006142b48482850161427b565b91505092915050565b7f4e487b7100000000000000000000000000000000000000000000000000000000600052600160045260246000fd5b60006080820190506143016000830187612e96565b61430e6020830186612e96565b61431b6040830185612f2c565b818103606083015261432d8184613ab9565b905095945050505050565b60008151905061434781612cc0565b92915050565b60006020828403121561436357614362612c8a565b5b600061437184828501614338565b91505092915050565b7f455243373231456e756d657261626c653a20636f6e736563757469766520747260008201527f616e7366657273206e6f7420737570706f727465640000000000000000000000602082015250565b60006143d6603583612d5a565b91506143e18261437a565b604082019050919050565b60006020820190508181036000830152614405816143c9565b9050919050565b7f4e487b7100000000000000000000000000000000000000000000000000000000600052601260045260246000fd5b7f4552433732313a206d696e7420746f20746865207a65726f2061646472657373600082015250565b6000614471602083612d5a565b915061447c8261443b565b602082019050919050565b600060208201905081810360008301526144a081614464565b9050919050565b7f4552433732313a20746f6b656e20616c7265616479206d696e74656400000000600082015250565b60006144dd601c83612d5a565b91506144e8826144a7565b602082019050919050565b6000602082019050818103600083015261450c816144d0565b9050919050565b7f4e487b7100000000000000000000000000000000000000000000000000000000600052601160045260246000fd5b600061454d82612e01565b915061455883612e01565b92508282039050818111156145705761456f614513565b5b92915050565b600061458182612e01565b915061458c83612e01565b92508282019050808211156145a4576145a3614513565b5b92915050565b7f4e487b7100000000000000000000000000000000000000000000000000000000600052603160045260246000fdfea26469706673582212205b620c781922afb2298f9341d23fa52bac110530c3a447c5b0c6455afb08fea964736f6c63430008110033",
  "linkReferences": {},
  "deployedLinkReferences": {}
}